S02700004C45442D546F67676C652D4C6179657265642D4172636869746563747572652E7372656396
S11300000C942A000C943C000C943C000C943C008E
S11300100C943C000C943C000C943C000C943C006C
S11300200C943C000C943C000C943C000C943C005C
S11300300C943C000C943C000C943C000C943C004C
S11300400C943C000C943C000C943C000C943C003C
S11300500C943C0011241FBECFE5D8E0DEBFCDBF19
S113006020E0A0E6B0E001C01D92A136B207E1F79E
S11300700E9463000C94DC000C9400000E947A003F
S113008008950E94C60008950E947A0008950E946F
S1130090920008950E94AA00089580916000813022
S11300A039F462E080E00E944A00109260000895F2
S11300B080916000811106C062E00E94470081E0E7
S11300C080936000089562E080E00E94440061E053
S11300D082E00E943E0061E082E00E9441008823A9
S11300E0D1F361E082E00E9441008823A1F30E94E1
S11300F04D00F1CF813051F028F0823059F0833037
S113010069F008958AB3682B6ABB089587B3682B96
S113011067BB089584B3682B64BB089581B3682BCF
S113012061BB0895813051F028F0823059F083305A
S113013069F008958BB3682B6BBB08958BB3682B60
S11301406BBB08958BB3682B6BBB08958BB3682B83
S11301506BBB0895813059F028F0823069F0833008
S113016081F008958BB3609568236BBB089588B3C1
S11301706095682368BB089585B36095682365BB63
S1130180089582B36095682362BB0895813049F075
S113019028F0823049F0833051F00CC089B38623B3
S11301A0089586B38623089583B38623089580B380
S10F01B08623089580E00895F894FFCFA2
S9030000FC
