:100000000C942A000C943C000C943C000C943C0092
:100010000C943C000C943C000C943C000C943C0070
:100020000C943C000C943C000C943C000C943C0060
:100030000C943C000C943C000C943C000C943C0050
:100040000C943C000C943C000C943C000C943C0040
:100050000C943C0011241FBECFE5D8E0DEBFCDBF1D
:1000600020E0A0E6B0E001C01D92A136B207E1F7A2
:100070000E946A000C94E1000C94000060E082E0B1
:100080000E947F00089561E082E00E94CB00089505
:1000900061E080E00E947F00089561E080E00E94BE
:1000A0009700089561E080E00E94AF00089580917C
:1000B0006000813029F40E9452001092600008957F
:1000C00080916000811105C00E944D0081E0809305
:1000D000600008950E9448000E943E000E94430074
:1000E0008823E1F385EA9EE00197F1F700C0000064
:1000F0000E944300882391F30E945700EFCF813084
:1001000051F028F0823059F0833069F008958AB3B5
:10011000682B6ABB089587B3682B67BB089584B3C7
:10012000682B64BB089581B3682B61BB089581304F
:1001300051F028F0823059F0833069F008958BB384
:10014000682B6BBB08958BB3682B6BBB08958BB387
:10015000682B6BBB08958BB3682B6BBB0895813004
:1001600059F028F0823069F0833081F008958BB324
:10017000609568236BBB089588B36095682368BB5E
:10018000089585B36095682365BB089582B3609533
:10019000682362BB0895813049F028F0823049F02D
:1001A000833051F00CC089B38623089586B386232B
:1001B000089583B38623089580B38623089580E04D
:0601C0000895F894FFCF42
:00000001FF
